:020000020000FC
:0200000010C02E
:020012008AC0A2
:04001600F3C03AC138
:1000200096C004E00EBF0FE50DBF00271CE81801C5
:1000300002ED10EE280100E016E0380105E714E8B3
:1000400048010BEA1FE8580106E007BB06E008BBC1
:1000500009E304BB09E305BB0AE001BB03E002BB03
:1000600003E003BF22BE2DBC2CBC2BBC03E00ABDA9
:1000700029BC03E008BD00E50FBD0AE00EBD02E0AB
:1000800005BD2BB808E90AB906EB00BD20BC09E1A3
:1000900009B900E108B920BE43D0A6D031D0AC9850
:1000A000AB98A898789483FD04D081FD0AD00DD038
:1000B000FACF877FAC9A08E108B901E009BF77BAA7
:1000C00008958D7FAC9818D1089508B105FF02C03E
:1000D000AB980895AB9A0895939A02D09398089597
:1000E0002F931F930F9328E0112700270A95F1F70C
:1000F0001A95D9F72A95C1F70F911F912F9108955D
:100100002F931F930F9324E1112700270A95F1F7EE
:100110001A95D9F72A95C1F70F911F912F9108953C
:1001200088272092730008950F930FB70F9308B19B
:1001300003FF02C0846007C0816005FF8E7F00EE70
:1001400002BF08E108B90F910FBF0F9118950F93E7
:100150001F932F933F934F935F936F937F930FB7AB
:100160000F931091730020916D0030916E004091BB
:100170006F0050917000609171007091720000E109
:1001800008B902B742BE003F10F082FF03C08B7F68
:10019000112711C0889480FD08947795679557952D
:1001A0004795379527951395103328F067BA28B8E7
:1001B00029BE826011271093730020936D00309345
:1001C0006E0040936F0050937000609371007093C5
:1001D00072000F910FBF7F916F915F914F913F918F
:1001E0002F911F910F9118952092740020927F00FB
:1001F0002092810090928200B092830008950F9324
:100200001F93CF93DF930FB70F930CB1AAD0109128
:100210007400103021F40A1551F5139529C01130DE
:1002200069F4083020F500937C0000937D008092F3
:100230007E0013950023E1F413951AC0123071F477
:10024000DD27C0917E000993C0937E0000917D0060
:100250000A9500937D0061F413950AC0133039F4B8
:1002600000917F00002309F40CD020927F0010E061
:10027000109374000F910FBFDF91CF911F910F91D9
:10028000189500917500003209F4886008950F9365
:100290001F93CF93DF930FB70F931091810010300E
:1002A00039F40091800046D01395109381001CC052
:1002B000113089F4DD27C09182000991C09382003A
:1002C00039D0C0918000CA95C093800069F413951D
:1002D0001093810009C000918300559820928100FD
:1002E00090928200B09283000CB90F910FBFDF9102
:1002F000CF911F910F91189500916D00009384008C
:1003000000916E000093850000916F0000938600BD
:1003100000917000009387000091710000938800A5
:10032000009172000093890006E000938000ACB851
:10033000559A08950F931F932F933F932091830015
:1003400018E0302F3227269530FF01C0232506956F
:100350001A95B9F7209383003F912F911F910F9128
:1003600008950F931F932F933F9320917F0018E0E0
:10037000302F3227269530FF01C0232506951A9588
:10038000B9F720937F003F912F911F910F9108950E
:00000001FF
