:020000020000FC
:0200000010C02E
:020012008DC09F
:040016000CC15AC1FE
:100020009DC004E00EBF0FE50DBF00271CE81801BE
:1000300001EF11EE280100E016E0380107E716E8AD
:1000400048010BEA1FE8580101E0680106E007BB20
:1000500006E008BB09E304BB09E305BB0AE001BBFA
:1000600003E002BB03E003BF22BE2DBC2CBC2BBCB3
:1000700003E00ABD29BC03E008BD00E50FBD0AE0AE
:100080000EBD02E005BD02E00BB908E90AB906EBB6
:1000900000BD20BC29B802E90CB900E108B920BEB6
:1000A00042D0BBD030D0AC98AB98A898789484FD5F
:1000B00004D081FD08D00CD0FACF8F7EAC9A08E135
:1000C00008B977BA08958D7FAC983ED108D00895CD
:1000D00008B105FF02C0AB980895AB9A0895939AB2
:1000E00002D0939808952F931F930F9328E0112720
:1000F00000270A95F1F71A95D9F72A95C1F70F91BC
:100100001F912F9108952F931F930F9324E111278F
:1001100000270A95F1F71A95D9F72A95C1F70F919B
:100120001F912F91089588272092750008950F93AD
:100130000FB70F9383FD06C08E7F459B816088605B
:1001400052BE08C0439904C008E108B952BE02C0BB
:1001500029BE84600F910FBF0F9118950F931F93C5
:100160002F933F934F935F936F937F93AF93BF937F
:100170000FB70F931091750020916D0030916E00B4
:1001800040916F0050917000609171007091720009
:10019000A0917300B091740000E108B9877F02B7A5
:1001A00042BEC9BE0F3E20F0063F10F482FF03C0DE
:1001B0008B7F112713C0889480FD0894B795A7956D
:1001C00077956795579547953795279513951034EB
:1001D00028F067BA28B829BE8260112710937500ED
:1001E00020936D0030936E0040936F005093700029
:1001F0006093710070937200A0937300B0937400C9
:100200000F910FBFBF91AF917F916F915F914F9110
:100210003F912F911F910F91189520927600209277
:1002200081002092830090928400B092850008950E
:100230000F931F93CF93DF930FB70F930CB1C1D0E0
:1002400010917600103021F40A1551F5139529C04C
:10025000113069F4083020F500937E0000937F0090
:100260008092800013950023E1F413951AC0123098
:1002700071F4DD27C09180000993C0938000009144
:100280007F000A9500937F0061F413950AC0133034
:1002900039F400918100002309F40CD020928100F0
:1002A00010E0109376000F910FBFDF91CF911F9157
:1002B0000F91189500917E00002311F440D008950D
:1002C00000917700003211F48061089508950F9332
:1002D0001F93CF93DF930FB70F93109183001030CC
:1002E00051F40091820056D01395002309F4139520
:1002F000109383001CC0113089F4DD27C091840065
:100300000991C093840046D0C0918200CA95C093E1
:10031000820069F413951093830009C00091850051
:1003200055982092830090928400B09285000CB979
:100330000F910FBFDF91CF911F910F9118952092D0
:100340008200ACB8559A089500916D000093860024
:1003500000916E000093870000916F000093880069
:1003600000917000009389000091710000938A0051
:100370000091720000938B000091730000938C0039
:100380000091740000938D0008E000938200ACB8E7
:10039000559A08950F931F932F933F9320918500B3
:1003A00018E0302F3227269530FF01C0232506950F
:1003B0001A95B9F7209385003F912F911F910F91C6
:1003C00008950F931F932F933F932091810018E07E
:1003D000302F3227269530FF01C0232506951A9528
:1003E000B9F7209381003F912F911F910F910895AC
:00000001FF
